:020000020000FC
:1000000059C008C01FC01895189518953FC018957D
:1000100018954EC00F930FB70F9305B700FF08C098
:10002000643610F0746001C0726002E005BF02C067
:1000300003E005BF0BB70F7B0BBF66270F910FBF08
:100040000F9118950F930FB70F931F936F3F41F0C8
:100050006395633029F40BB700640BBF00E40ABF5B
:1000600073FF08C05395543629F4552701E0E01A70
:100070000027F00A70FF05C0002702BF04E009BF97
:1000800033271F910F910FBF0F9118950F930FB743
:100090000F93C29904C0341730F0C29A04C0C298BA
:1000A00009B70B7F09BF33950F910FBF0F911895BB
:1000B000706118950FE90DBFE0E6FF270027019357
:1000C000E03AE9F7EE27FF27002411242224332405
:1000D000442455246624772488249924AA24BB2404
:1000E000CC24DD24EE24FF240027112722273327E8
:1000F000442755276627772788279927AA27BB27CC
:10010000CC27DD270CE007BB02E008BB02E005BFFF
:1001100001E005BB00E60BBF0FE206BF01E003BF35
:1001200002E00FBD002702BF02E207B90BEA06B9E1
:1001300006E003B908E101BD0EE001BDC298789464
:10014000A89570FF02C0C39A01C0C39872FF1BC07C
:100150007B7F70FF1BC0F8947860552737988827FD
:10016000992702ED041B202F04E813E00196021BDF
:100170001040E0F70197020FE82EF92EE00E00275D
:10018000F01E789407C071FF05C07D7F379A01E0AB
:100190007027777F73FF0DC0F894EE2049F4FF209D
:1001A00039F4E82EF92E4395423D11F447EC767F61
:1001B000789474FFC5CF7F7E05B10695069511270B
:1001C000002319F01D5F0A95FBCF165F412FB8CFB2
:00000001FF
