:020000020000FC
:1000000059C008C01FC01895189518953FC018957D
:1000100018954EC00F930FB70F9305B700FF08C098
:10002000643610F0746001C0726002E005BF02C067
:1000300003E005BF0BB70F7B0BBF66270F910FBF08
:100040000F9118950F930FB70F931F936F3F41F0C8
:100050006395633029F40BB700640BBF00E40ABF5B
:1000600073FF08C05395543629F4552701E0E01A70
:100070000027F00A70FF05C0002702BF04E009BF97
:1000800033271F910F910FBF0F9118950F930FB743
:100090000F93C29904C0341730F0C29A04C0C298BA
:1000A00009B70B7F09BF33950F910FBF0F911895BB
:1000B000706118950FE90DBFE0E6FF270027019357
:1000C000E03AE9F7EE27FF27002411242224332405
:1000D000442455246624772488249924AA24BB2404
:1000E000CC24DD24EE24FF240027112722273327E8
:1000F000442755276627772788279927AA27BB27CC
:10010000CC27DD270CE007BB02E008BB02E005BFFF
:1001100001E005BB00E60BBF0FE206BF01E003BF35
:1001200002E00FBD002702BF02E207B90BEA06B9E1
:1001300006E003B908E101BD0EE001BDC298789464
:10014000A89570FF02C0C39A01C0C39872FF1AC07D
:100150007B7F70FF1AC0F8947860552737988827FE
:10016000992704E90D19A02E202F04E813E0019629
:10017000021B1040E0F70197020FB02ECC242AD0CA
:10018000789407C071FF05C07D7F379A01E0702722
:10019000777F73FF13C0F894EE2079F4FF2069F4A1
:1001A000D39404E9D01639F0EAEEF1E0ED0DF01D3C
:1001B000449110D002C047EC767F789474FFC0CF92
:1001C0007F7E05B10695D02EEAEEF1E0E00FF01D3E
:1001D0004491B6CFE82EF92ECB0C10F0CA1420F0C3
:1001E000CA18E39409F4F39408950A1F272D3236B0
:1001F0003A3D404345484A4C4F51535456585A5B38
:100200005D5F606263656667696A6B6D6E6F717270
:100210007374757778797A7B7C7D7E808182838424
:1002200085868788898A8B8C8D8E8F909192939406
:10023000959595969798999A9B9C9D9E9FA0A0A115
:10024000A2A3A4A5A6A7A8A8A9AAABACADAEAFAF20
:10025000B0B1B2B3B4B5B5B6B7B8B9BABBBCBCBD32
:10026000BEBFC0C1C2C3C4C5C6C7C8C9CACBCCCD36
:0E027000CECFD0D1D2D3D4D5D6D7D8D9DADBE1
:00000001FF
