:020000020000FC
:100000004DC008C01BC018951895189537C0189595
:10001000189542C00F9305B700FF08C0683C10F068
:10002000746001C0726002E005BF02C003E005BF5A
:100030000BB70F7B0BBF66270F9118950F931F937C
:100040006F3F41F06395633029F40BB700640BBF39
:1000500000E40ABF73FF08C05395533629F45527AF
:1000600001E0E01A0027F00A70FF05C0002702BF78
:1000700004E009BF33271F910F9118950F93C29980
:1000800004C0341730F0C29A04C0C29809B70B7F7D
:1000900009BF33950F911895706118950FE90DBF41
:1000A000E0E6F0E000270193F030E9F7EF39D9F707
:1000B000EE27FF270024112422243324442455242E
:1000C0006624772488249924AA24BB24CC24DD2404
:1000D000EE24FF2400271127222733274427552702
:1000E0006627772788279927AA27BB27CC27DD27CC
:1000F0000CE007BB02E008BB02E005BF01E005BB66
:1001000000E60BBF00E306BF01E003BF02E00FBD46
:10011000002702BF02E207B908EA06B906E003B900
:10012000C298789470FF02C0C39A01C0C39872FF4E
:1001300017C07B7F70FF17C0F894786055273798F9
:100140008827992702ED041B202F00EB14E001966D
:10015000021B1040E0F70197E82EF92E789407C0B3
:1001600071FF05C07D7F379A01E07027777F73FFAD
:100170000DC0F894EE2049F4FF2039F4E82EF92E52
:100180004395423D11F447EC767F789474FFCACFD3
:100190007F7E05B1069506951127002319F01D5F96
:0A01A0000A95FBCF165F412FBDCF7B
:00000001FF
